:101566002020203A20203A2020202030302E300023
:10157600323020202D20202D202020202020200049
:101586002565002566002020202020202020202000
:10159600202020202020003D00202020203A20204E
:1015A6003A20202020573A20200020323020202DBB
:1015B60020202D20202020202020003031323334DE
:1015C60035363738396162636465666700808284C0
:1015D60086888C8A81838587898D8B5800000110C7
:0215E6001401EE
:0F1B5400012600011500011700011800011A00F9
:081BB200C2B6D2B47F647E00CC
:0B1BBA00EF1FAC0670011E4C70F622FD
:0F1BEA007580FFD2B6C2B5D2B420B7FDC2B42207
:0A1C3A008F80C2B5121BB2C2B422A3
:101AC2007C00AF03AE0212058E7C007D0A12058EE9
:041AD200ED2430FFD0
:0A1AD6008F80D2B5121BB2C2B422F9
:1018C2007BFF7A15798C7F801218D57B007A00799C
:0318D200467F80CE
:1018D500121C3A120536FFD3940074809480400C94
:0D18E500121AD6740129F9E43AFA80E722BC
:0618F2007819E6FB7F01FE
:1018F800EF64017005ED24808003ED24C0FF121C05
:101908003AEBC4540FFFEB540FFDEF9015C193FF52
:09191800121AD6ED93FF021AD653
:101A3C00EF64017005ED24808003ED24C0FF121CBF
:101A4C003A120536FF600C121AD6740129F9E43AE1
:041A5C00FA80EE22FC
:101AE000EF64017005ED24808003ED24C0FF121C1B
:0E1AF0003AEB75F00A84E5F02430FF021AD6B6
:10000300EF64017005ED24808003ED24C0FF121C12
:100013003AEB640170047F0F80027F0C121C3A22BA
:10189000EF64017005ED24808003ED24C0FF121C6D
:1018A0003A7D64121AC27D0A121AC27F2E121AD60B
:1018B000AE02AF037C007D0A12058EED2430FF02DC
:0218C0001AD636
:101B8700EF64017005ED24808003ED24C0FF121C73
:061B97003AAF03021AD66A
:101B6E007F38121C3A7F0C121C3A7F06121C3A7FE9
:091B7E0001121C3A7F80021C3A9E
:101AA3007BFF7A157966E4FD7F01121A3C7A15797A
:0F1AB300767F02121A3C7BDF7D0F7F01021B87BB
:06176E00A3E493FFE6FD79
:10177400D290E4F545E545C39408748094805010F4
:10178400C292EF139291EFC313FFD292054580E505
:10179400E4F545C3E5459408748094805010C292E2
:1017A400ED139291EDC313FDD292054580E5C290ED
:0517B400C292C2912267
:0617B900A607A3E493FF64
:1017BF00D290E4FDEDC3940874809480500FC292D0
:1017CF00EF139291EFC313FFD2920D80E7E4FDED7B
:1017DF00C39408748094805011C292EEC313FE30EC
:1017EF009103430680D2920D80E5C290C292C291BE
:0217FF00AF0633
:0118010022C4
:101921009015DAE493FF1217BF78121217B97816DF
:101931001217B978191217B9781C1217B91812179A
:0B194100B978111217B97814A607221C
:1016CE00E4FD7F8E1217749015D3E493FF7812E623
:1016DE00FD121774781612176E781912176EA3E48E
:1016EE0093FF781CE6FD121774A3E493FF18E6FD32
:1016FE00121774A3E493FF7811E6FD121774A3E496
:10170E0093FF7814E6FD1217747D807F8E02177496
:101A6000AE07AC05EE25E0FE5306FE4306C0E4FDDE
:101A70007F8E121774AF06AD041217747D807F8EAF
:031A8000021774D6
:0D1C0800EF25E0FF4307014307C00217BFAF
:10165E00C290C292C2917F1E121C08AE07EE6403A6
:10166E0060357E037D037F1E121A60E4FD7F8E12AD
:10167E001774E4FEEEC39407748094805012EE90BB
:10168E0015D393FFEE9015E193FD1217740E80E4BF
:10169E007D807F8E1217741219217812E6C3946022
:1016AE00748094804019E4FD7F8E1217749015D3C8
:0F16BE00E493FF7D011217747D807F8E121774E5
:0116CD0022FA
:101A83007E00D3EF9400EE940040147D6E7C00ED55
:0F1A93001D70011CED4C70F7EF1F70E61E80E315
:011AA2002221
:10120200752D1475A0F085A044E54464F0700302C6
:1012120012B043440F8544A085A044E54360030215
:1012220012B3754301E544120601126F77126A7B0D
:1012320012657D12607E1283B7127EBB1279BD12D7
:1012420074BE1297D71292DB128DDD1288DE12ABBA
:10125200E712A6EB12A1ED129CEE000012B3752D5F
:101262000A804EE4F52D8049752D0B8044752D0FB3
:10127200803F752D07803A752D088035752D0980C0
:1012820030752D0E802B752D048026752D0580213D
:10129200752D06801C752D0D8017752D0180127518
:1012A2002D02800D752D038008752D0C8003E4F549
:1012B20043D29520950CE557700B755701752D118A
:1012C2008003E4F557D29620960A200909D20975BF
:0912D2002D128002C209AF2D2289
:0212DB008F582A
:1012DD00E4F55EFE7F10FDFB7A00792E1206277570
:1012ED0062FF756315756486855C68855B67855AD5
:1012FD00668559657B007A00792E1206AF742E250E
:10130D005EF8E664656004055E80F27430255EF873
:10131D00E6643070527431255EF8E6C394377480FC
:10132D00948050437562FF756315756489855C689B
:10133D00855B67855A668559657B007A00792E1223
:10134D0006AF7B007A00792E121B9D8F5DE55D60E7
:10135D0030242DF8E6FFB42E04E4F68024EF64303B
:10136D00701FF6155D80E6E55E6016242DF8E6FF2C
:10137D00B42E047620800AEFB430067620155E80F8
:10138D00E67BFF7A15798CAF581218D57B007A0061
:09139D00792EAF581218D5AF5D8E
:0113A6002224
:101444008F58AF2B7E00C3EF940574809480505A5C
:10145400E5466441602DAD467C00ED94397480947A
:10146400805020C3ED9430748094804016EF640261
:1014740060117B007A0079461218028F258E248D24
:10148400238C22E52B70107815E62446F8A65878AC
:101494001506E6F526801074462526F8E6700878C9
:1014A40015E62445F8A6581218CDE52B64057025D9
:1014B400781576047818F6752604FE7F10FDFB7AFD
:1014C40000794612062775464175476E754873853F
:0614D40058491218C22263
:10197700D2947F017E00121BBAC2947F507E001260
:101987001BBAD2947F0A7E00121BBAA29492007FE0
:08199700147E00121BBAD29469
:01199F002225
:021A1700AD0719
:101A1900E4FBEBC39408748094805016C294ED13D0
:101A290092947F057E00121BBAD294EDC313FD0B6D
:021A390080E04B
:011A3B002288
:1019C900E4FBEBC39408748094805018C294EDC36F
:1019D90013FDD2943094034305807F057E00121BCA
:0619E900BA0B80DEAF0521
:0119EF0022D5
:10184A001219777FCC121A177F44121A177F327E29
:10185A0000121BBA1219777FCC121A177FBE121AFE
:10186A0017C2AF1219C9AA071219C9D2AFEFFEAD32
:10187A0002EDFFE4AC061202C9E4FBFA7920783FD4
:06188A0012011E02030220
:1013A700EF64017005ED24808003ED24C0FF121C5B
:1013B7003AEB14B4070040030214439013D075F0BE
:1013C70003A4C58325F0C583730213E50213EE0258
:1013D70013FC02140A0214180214260214347F4D57
:1013E700121AD67F4F804D7F54121AD67F55121A84
:1013F700D67F4580447F57121AD67F45121AD67F6B
:101407004480367F54121AD67F48121AD67F5580E9
:10141700287F46121AD67F52121AD67F49801A7F22
:1014270053121AD67F54121AD67F41800C7F53125B
:0D1437001AD67F55121AD67F4E121AD622F1
:10171E007D011218F27816E6FB7D047F011218F88F
:10172E007812E6FB7D077F011218F87814E6FB7D30
:10173E000C7F021213A7AB40AA3F1D7F0112189017
:10174E007811E6FB7D027F021218F8781BE6FB7D0E
:10175E00057F021218F808E6FB7D087F020218F8D2
:100E4D007813E624F6B408004003021064900E688F
:100E5D0075F003A4C58325F0C58373020FCA020E76
:100E6D0080020F47020F67020F87020FA70210645F
:100E7D00020FF774462526F8E6FF7E00D3943974E9
:100E8D00809480400302111BC3EF943074809480D2
:100E9D00500302111B74462526F9E4FAFB121802C1
:100EAD008F2A8E298D288C27E47818F6E52B24FEC1
:100EBD00601F1460311460432403705AAF25AE24B3
:100ECD00AD23AC22AB2AAA29A928A82712002D8070
:100EDD003DAF25AE24AD23AC22AB2AAA29A928A863
:100EED00271200298028AF25AE24AD23AC22AB2AD2
:100EFD00AA29A928A82712011E8013AF25AE24AD5B
:100F0D0023AC22AB2AAA29A928A8271202278F25AC
:100F1D008E248D238C2285255C85245B85235A8523
:100F2D0022597FC01212DB7815E62480FF7BFF7AF1
:100F3D0015799D1218D5752B0522E5467003021102
:100F4D001B7818E6D3940074809480400302111B23
:100F5D007F2B121444752B01805EE5467003021140
:100F6D001B7818E6D3940074809480400302111B03
:100F7D007F2D121444752B02803EE546700302113D
:100F8D001B7818E6D3940074809480400302111BE3
:100F9D007F2A121444752B03801EE546700302113F
:100FAD001B7818E6D3940074809480400302111BC3
:100FBD007F2F121444752B04E4781AF622781AE662
:100FCD00600302111B7817E6700708E67003021123
:100FDD001B781A067815E62446F8762E7815067BCA
:100FED00007A0079467F800218D57815E6700302E5
:100FFD00111B2445F8E6FF7E00D39439748094804C
:10100D00500AC3EF943074809480500B7815E62409
:10101D0045F8E6642E7033AF2B7E00EF6405602A31
:10102D007815E62445F8E6B42E06E4781AF6800C19
:10103D00EF4E70057817168003781816781516E69A
:10104D00F5262446F8E4F61218C27815E660030278
:10105D00111B7F30021AD67813E6C3940A7480945C
:10106D0080400302111B781AE6C3940774809480A4
:10107D00400302111BE52B6405702FF52B7815F637
:10108D007817F608F6F526781AF6FE7F10FDFB7A2E
:10109D000079461206277BFF7A15798C7F8012180E
:1010AD00D57A15798C7FC01218D5E52B7027781756
:1010BD00E6C394077480948050547813E62430FF6F
:1010CD007815E62446F8A6071218CD781506E6F52C
:1010DD002678170622C3E52B940574809480502E34
:1010ED007818E6C394077480948050227815E6FF33
:1010FD00C394117480948050157813E62430FE74D7
:0F110D00462FF8A6061218CD7815067818062278
:100AC2007813E6641270320541F542E54164017023
:100AD20003121AA3C3E541940274809480401AE47D
:100AE200F541121B6E7F30121AD67E007F107D00F8
:100AF2007B007A0079461206277813E66411704665
:100B0200E541640170400542E542640170157BFFD6
:100B12007A15799FFD7F01121A3C7A1579B07F020E
:100B2200121A3CD3E5429407748094804018E4F58D
:100B320042121AA3E4FB7D027F01120003121C4E33
:100B4200121BD8121C51AF41EF64016003020E4C1C
:100B5200AD42ED7003020E4CEF64016003020E4CD5
:100B6200ED6401704C7813E6FF7E00640C7024780B
:100B72001906E6FD540FC3940A748094804006ED72
:100B820054F02410F67819E6C394247480948040BB
:100B920002E4F6EF640D4E70187819E670027624BE
:100BA2007819E6FF540F7006EF440A24F0F678191C
:100BB20016E5426402704C7813E6FF7E00640C7006
:100BC20024781606E6FD540FC3940A74809480407C
:100BD20006ED54F02410F67816E6C39460748094FF
:100BE200804002E4F6EF640D4E70187816E670024B
:100BF200765A7816E6FF540F7006EF440A24F0F690
:100C0200781616E5426403704B7813E6FF7E0064A3
:100C12000C70231806E6FD540FC3940A7480948066
:100C22004006ED54F02410F67812E6C39460748006
:100C320094804002E4F6EF640D4E70187812E6706C
:100C420002765A7812E6FF540F7006EF440A24F037
:100C5200F6781216E5426404704D7813E6FF7E00C2
:100C6200640C70230806E6FD540FC3940A74809442
:100C7200804006ED54F02410F67814E6C39408740C
:100C820080948040027601EF640D4E701A7814E66B
:100C92006401700276087814E6FF540F7006EF4480
:100CA2000A24F0F6781416E5426405704E7813E6CD
:100CB200FF7E00640C7024781106E6FD540FC39485
:100CC2000A748094804006ED54F02410F67811E600
:100CD200C3949A7480948040027601EF640D4E7042
:100CE2001A7811E664017002769A7811E6FF540FC1
:100CF2007006EF440A24F0F6781116E54264067095
:100D02004E7813E6FF7E00640C7024781B06E6FD25
:100D1200540FC3940A748094804006ED54F024105A
:100D2200F6781BE6C394127480948040027601EF39
:100D3200640D4E701A781BE6640170027613781BFC
:100D4200E6FF540F7006EF440A24F0F6781B16E50E
:100D5200426407704E7813E6FF7E00640C702478BC
:100D62001C06E6FD540FC3940A748094804006ED7D
:100D720054F02410F6781CE6C394327480948040B8
:100D820002E4F6EF640D4E701A781CE664017002FC
:100D92007632781CE6FF540F7006EF440A24F0F610
:100DA200781C167D021218F27816E6FB7D057F018B
:100DB2001218F87812E6FB7D087F011218F87814F1
:100DC200E6FB7D0E7F01121AE07811E6FB7D037FC0
:100DD200021218F8781BE6FB7D067F021218F8084B
:100DE200E6FB7D097F021218F8E54214B4070050B1
:100DF20056900E0175F003A4C58325F0C5837302D6
:100E02000E16020E1C020E22020E28020E30020ED6
:100E120038020E407B017D0280107B017D05800A35
:100E22007B017D0880047B017D0E7F0180167B01A2
:100E32007D037F02800E7B017D067F0280067B019F
:0B0E42007D097F021200031216CE2271
:101B38007F2C7E01121C2F121AFE1219A0121BF9FB
:0C1B48007FFE7EFF121C2F121C4480E464
:1015E80075B0FF75A0FF7590FF7580FF121B6E1216
:1015F800165E12184A8E3F8F407F30121AD67E0030
:101608007F107D007B007A007946120627052CC3DF
:10161800E52C941474809480401AE4F52CE5416418
:10162800017011E542700D12184A8E3F8F40121951
:101638002112171E1212027813A6077F0A121A83A4
:10164800E6C394147480948050C3E5417003120E6D
:061658004D120AC280B72A
:0B1C2F00EF1FAC0670011E4C70F62287
:031C4E00C293221C
:031C5100D2932209
:101BD800C2937F587E02121C2FD2937F587E020236
:021BE8001C2FB0
:0A1B6300010900011000020E00014C
:101AFE007F2C7E01121C2F758920758DFD758BFD37
:0D1B0E00759850E4F587D28ED2ACD2AF228C
:101B1B007FAA121B2C7F07121B2C7F02121B2CE49B
:011B2B00FFBA
:0C1B2C00C2AC8F993099FDC299D2AC2256
:1019A000121B1B0F121B2C7FB4121B2CD3E50F94A0
:1019B00003E50E940050117FFE7EFF121C2F050FD1
:0919C000E50F70E8050E80E42239
:0D1C1500121B1B7F02121B2C7FB5021B2C23
:0D1C2200121B1B7F03121B2C7FB6021B2C14
:0F1BF9007FAA121B2C7F03121B277FAD021B2C10
:0A1C44007FAA121B227FAC021B2CAA
:0300230002194C73
:10194C00C0E0C0D075D000C000309818C298E5092E
:10195C007009740A2510F8A6990510E51064037037
:0B196C0003750801D000D0D0D0E0329D
:1000260002036EE86480F8E933E83360110460F097
:10003600ED33EC337009E8FCE9FDEAFEEBFF220440
:1000460060DED3EB9FEA9EE99DE8C2E78CF0C2F73B
:1000560095F0400CE8CCF8E9CDF9EACEFAEBCFFB07
:1000660012033985D0F05804700320D5B3E8047024
:10007600075002B2D502037892D5EC0460F7E4CCBF
:10008600C0E0C398F8603B94186008400DD0E0FBD0
:10009600020350E4FBFAC9FC8028E830E406E4C910
:1000A600FBE4CAFCE830E305E4C9CACBFCE8540724
:1000B6006010F8C3E913F9EA13FAEB13FBEC13FC2F
:1000C600D8F130F52FC3E49CFCEF9BFFEE9AFEEDD2
:1000D60099FDD0E0FBEF4E4D4C701222DB0302037C
:1000E60075EC2CFCEF33FFEE33FEED33FDED30E720
:1000F600EB020350EF2BFFEE3AFEED39FDD0E0FBAD
:1001060050130BBB0003020378ED13FDEE13FEEF55
:0801160013FFEC13FC0203507F
:10011E00EC4D6011E8497017ED33EC3304600DE4DB
:10012E00FCFFFEFD22E933E8330470F802036E1281
:10013E00033958046009E4CC248150062850090282
:10014E000378284003020375C0E0EB4A7044B9807F
:10015E0006D0E0FB020364EF4E701CBD8008EBFF7F
:10016E00EAFEE9FD80EBE98DF0A4FEE5F002020760
:10017E00E9CDF9EAFEEBFFEF89F0A4FCE5F0CE89BC
:10018E00F0A42EFFE435F0CD89F0A42DFEE435F079
:10019E008067EF4E7005BD80D780C3EF8BF0A4ACA7
:1001AE00F0EE8BF0A42CFCE435F0F8EF8AF0A42CE2
:1001BE00E5F038FCE433CB8DF0A42CFCE5F03BF8F5
:1001CE00EE8AF0A42CFCE5F038F8E433CF89F0A4E5
:1001DE002CFCE5F038CF3400CE89F0A42FFFE5F0EB
:1001EE003EFEE433C98DF0A42EFEE5F039CD8AF043
:1001FE00A42FFFE5F03EFEE43DFD33D0E0FB5007BB
:10020E000BBB000F020378EC2CFCEF33FFEE33FE3A
:06021E00ED33FD02035068
:10022400020378EC5D046005E85904700302036E70
:10023400120339580460F6EC4860F2EC7004FDFED9
:10024400FF22C860DB2481C85009C39860025006AD
:100254000203759850CAF582E9294B4A7005AB82AE
:1002640002036475F0007C1A7880C3EF9BEE9AED6C
:1002740099400DC3EF9BFFEE9AFEED99FDE842F025
:10028400DC23ACF0D0E0FFD0E0FED0E0FDAB822078
:10029400E7101BEB60BAEC2CFCEF33FFEE33FEED02
:1002A40033FD020350E803F830E705C0F075F000B1
:1002B400EF2FFFEE33FEED33FD40B830E7C280AAE6
:1002C40075F020800E75F010800575F0087D007EB5
:1002D400007F003392D530D5031205E3EC33401090
:1002E400EF33FFEE33FEED33FDEC33FCD5F0ED22BE
:0E02F400E5F0247EA2D513CC92E7CDCEFF22FA
:10030200EDD2E7CD33EC3392D524814006E4FFFEF3
:10031200FDFC22FCE4CFCECDCC24E0501174FF8052
:10032200EDC3CC13CCCD13CDCE13CECF13CF0470EF
:07033200F030D5DE0205E307
:10065300E5762462F8E6057622785F300702786251
:10066300E475F0011205F10205362000EB7F2ED26E
:10067300008018EF540F2490D43440D4FF30040B7F
:10068300EF24BFB41A0050032461FFE5776002151D
:1006930077057AE57A7002057930070D785FE4759E
:1006A300F0011205F1EF02057C0219F07403D20781
:1006B3008003E4C207F5768B5F8A608961E4F5778E
:1006C300F579F57AE57760077F2012068E80F57558
:1006D30078FFC201C200C202C203C205C206C20839
:1006E30012065CFF700D3007057F0012069FAF7A7C
:1006F300AE7922B4255FC2D5C20412065CFF24D0B2
:10070300B40A00501A75F00A787730D50508B6FF99
:100713000106C6A426F620D5047002D20380D9248C
:10072300CFB41A00EF5004C2E5D20402098CD201FF
:1007330080C6D20080C0D20280BCD2D580BAD20596
:1007430080B47F2012068E2002077401B577004023
:10075300F1120653FF12068E0206C7D208D2068094
:1007630095120653FB120653FA120653F94A4B70BD
:100773000679837A0A7BFF20022EE577602A7E00C2
:100783008E8275830012054F60060EEE657870F059
:10079300C2D5EBC0E0EAC0E0E9C0E0EE1209ECD05C
:1007A300E0F9D0E0FAD0E0FB120536FF60AAEBC017
:1007B300E0EAC0E0E9C0E012068ED0E02401F9D0FF
:1007C300E03400FAD0E0FBE5780460DCD578D9802A
:1007D30087D20280A21209CF60F7E5787001041274
:1007E3000383A978600DE578600914F578120A7619
:1007F300EF60F3EA30E702F404C3995077EAF42593
:10080300780430E701E404F578800D1209CF60C164
:10081300EA05782578120383EA7875F630E701E470
:10082300257804D57804200501141209ECE4C0E00E
:10083300120A767875E6601320E70714F612067637
:10084300802204F6D0E014C0E07F00120676E5783B
:10085300600712066D1578800B30050312066DD004
:10086300E00206C7D0E00480C51209CF60A0E57896
:10087300041203837875EAF6E57820050260010423
:0508830024041209EC41
:1008880074FF04C0E0120A76120676E578200502A5
:10089800600312066DD0E0B578E87F4512068078CF
:1008A80075E67F2B30E7047F2DF404C0E012068E36
:1008B800D0E075F00A84C0F0120677D0E01206770F
:1008C8000206C7791080027908C206C2088008D2D9
:1008D800D5790A8004790AC2D5E578047002F578DA
:1008E800E4FAFDFEFF120653FC7B082001131206F2
:1008F80053FD7B1030000A120653FE120653FF7B8D
:1009080020EC3382D592D55013C3E43000069FFF04
:10091800E49EFEE42001039DFDE49CFCE4CBF8C2C8
:1009280001EC700CCFCECDCCE824F8F870F380172A
:10093800C3EF33FFEE33FEED33FDEC33FCEB33FB5B
:10094800994002FB0FD8E9EB300105F8D0E0C44824
:10095800B201C0E00AEC4D4E4F78207B0070C2EA2D
:10096800B5780040BCC0E01209EED0F0D0E020011C
:1009780004C4C0E0C4B201C0F0120677D0F0D5F0CC
:10098800EB0206C712060107645308CB5807354C1B
:1009980007314208CF4F08D74408D749074A4308C8
:1009A800DD55080E46086C4507D8470AA350073995
:1009B8002D073D2E07602B074123075E200A8C2A4E
:1009C80006F94800000758E578B4FF037578061261
:1009D8000653FC120653FD120653FE120653FF7807
:1009E8006E0203B2790AA2D5200314300509B910A2
:1009F800020404B9080104A2D5200602500104200B
:100A080002689202B577005034C0E07F20300319A5
:100A18007F30A20272067205500F120A45C202C246
:100A280006C205C2087F30800F300503E9C0E01216
:100A3800068E300503D0E0F9D0E0B577CC30051745
:100A48007F30B9100C12068E7F583004077F7880EB
:100A580003B9080312068E3002057F2D02068E7F29
:100A6800202008F87F2B2006F322920280CF7F00F7
:100A7800B407005005246EF8E6FF22286E756C6CEA
:100A88002900D2011206533001F8C201787730D517
:100A98000108F60206F92D5043495812065324035B
:100AA800B405004001E4900A9E9312067F743A123E
:0A0AB800067FD2037577040208CB15
:10180200D2008B598A5A895B12183EC0E0FF121B24
:10181200C5D0E040F312112F400122ECC0E0EDC030
:10182200E0EEC0E0EFC0E012183ED0F0AFF0D0F032
:10183200AEF0D0F0ADF0D0F0ACF080D9E475F001AC
:0818420078591205F102053688
:10033900E9D2E7C933E833F892D5EDD2E7CD33EC0A
:0703490033FC5002B2D52283
:10035000EC30E7100FBF000C0EBE00080DBD00040E
:100360000BEB6014A2D5EB13FCED92E7FD2274FFBA
:10037000FCFDFEFF22E480F8A2D574FF13FC7D8013
:03038000E480EF27
:10038300F920E72824F950037907E4F42402FB1841
:10039300DBFDE624FB5014E9600DE4F618E604F6F1
:0F03A300B40A08E4F6D9F57401F60A22C2D5228D
:1003B200ED33EC3392D5FA602AB4FF33EDC2E77B1A
:1003C200FF60067A0379D7E4227A0379E020D50424
:1003D2007A0379DB224E614E002B494E46002D49AD
:1003E2004E4600E47A08F608DAFC7B00740722E83D
:1003F200C0E0ECC0E0EDC0E0EEC0E0EFC0E0EA75C6
:10040200F010A4CAABF075F04DA42BFBE435F0FC60
:10041200EA2410FAEB34C5FBEC34D9FCEDC2E7FF59
:1004220075F056A4F42411C5F0F434C58FF0A42A53
:10043200E5F03BE43CF620E7141204F6D0E0FFD0EE
:10044200E0FED0E0FDD0E0FC1202278014F404129A
:1004520004F6D0E0FFD0E0FED0E0FDD0E0FC1201D7
:100462001ED0E0F8E6FAEDD2E7CD33EC332482FB7E
:10047200E4C3CF33CFCE33CECD33CD33DBF37B07E3
:1004820075F00A846004F6081B0AE5F0F6088FF09E
:10049200740AA4FFACF08EF0740AA42CFEACF050E7
:1004A200010C8DF0740AA42CFDE435F0F608DBDEB5
:0304B200740722AA
:10111C00C201C202C203C204F9E4F55CF55DFCFD38
:10112C00FEFFE91000EA20030CB42D04D203D322F5
:10113C00B42B02D32224D0504794095041240A30B6
:10114C000415F8855DF0740AA42872E74051C5F0C7
:10115C00704D85F05DD322D202C0E0E4FBFA792019
:10116C00784112011EECF8EDF9EEFAEFFBD0E0FC41
:10117C00E41202CE12002D3001B4155CD322240AE5
:10118C00200420B4FE0720011AD201D32224EB60E4
:10119C000424E0700EA2039201D204C203D322C332
:1011AC0002036EE430040BE55D300302F404A2018B
:1011BC0092033002EA255C20D2E5A2E792045002A9
:1011CC00F404B4260050D8CCC0E0EDC0E0EEC0E092
:1011DC00EFC0E0EC1204F6D0E0FFD0E0FED0E0FD72
:1011EC00D0E0FC20040512011E80031202273003FC
:0611FC00031204B5C3223A
:1004B500ED33EC33600A047003BD8004ECB2E7FC55
:0104C5002214
:1004C6003F8000004120000042C80000447A00003E
:1004D600461C400047C35000497424004B189680C0
:1004E6004CBEBC205A0E1BCA6753C21C749DC5AEB7
:1004F600FB60065407601C2323120524EB54386066
:100506000912051012051F12011EECF8EDF9EEFA9C
:10051600EFCB22EB12051F80F1543803241C900404
:10052600C6FE93FC0EEE93FD0EEE930ECE93FF22C7
:030000000214DA0D
:0C14DA00787FE4F6D8FD75817A021521B8
:10053600BB010689828A83E0225002E722BBFE02C3
:09054600E32289828A83E49322F6
:10054F00BB010CE58229F582E5833AF583E0225061
:10055F0006E92582F8E622BBFE06E92582F8E222AB
:0D056F00E58229F582E5833AF583E49322C5
:10057C00BB010689828A83F0225002F722BBFE015E
:02058C00F32258
:10058E00BC000BBE0029EF8DF084FFADF022E4CC51
:10059E00F875F008EF2FFFEE33FEEC33FCEE9DEC1A
:1005AE00984005FCEE9DFE0FD5F0E9E4CEFD22ED60
:1005BE00F8F5F0EE8420D21CFEADF075F008EF2FAA
:1005CE00FFED33FD4007985006D5F0F222C398FD9B
:0505DE000FD5F0EA2238
:0E05E300C3E49FFFE49EFEE49DFDE49CFC2229
:1005F100FAE6FB0808E6F925F0F618E6CA3AF6220B
:10060100D083D082F8E4937012740193700DA3A388
:1006110093F8740193F5828883E47374029368609C
:06062100EFA3A3A380DF9C
:1019F000EFB40A07740D1219FB740A309811A899F4
:101A0000B8130CC2983098FDA899C298B811F63056
:071A100099FDC299F599222E
:101BC500EFC394094005EF940E4003BF2003D38073
:031BD50001C32227
:101B9D00E4FFFE120536600C0FEF70010E09E970BF
:051BAD00F20A80EF22A6
:10062700EF4E6012EF60010EEDBB010B89828A83EA
:10063700F0A3DFFCDEFA2289F05007F709DFFCA9F7
:0C064700F022BBFEFCF309DFFCA9F0224E
:1014E6000215E8E493A3F8E493A34003F68001F21F
:1014F60008DFF48029E493A3F85407240CC8C33307
:10150600C4540F4420C8834004F456800146F6DFD5
:10151600E4800B0102040810204080901B54E47EF6
:10152600019360BCA3FF543F30E509541FFEE493CA
:10153600A360010ECF54C025E060A840B8E493A391
:10154600FAE493A3F8E493A3C8C582C8CAC583CABC
:10155600F0A3C8C582C8CAC583CADFE9DEE780BE74
:011B6D000077
:00000001FF
